:1000000015EF00F0EA6A1B0EE96EEF500DE0020EEC
:10001000016E006A002EFED7012EFBD7970E006EF0
:10002000002EFED7EF2EF3D71200F86AD09E700E86
:10003000D36ED350C150C00B0F09C16E070EB46E02
:100040000568066A010E076E020E086E040E096E40
:10005000080E0A6E100E0B6E200E0C6E400E0D6E0A
:10006000800E0E6E010E0F6E030E106E070E116ED7
:100070000F0E126E1F0E136E3F0E146E7F0E156E56
:10008000166881A031D0176A1750020814E3186A65
:10009000185009080EE3036A1850050FE96E000EA8
:1000A0000320EA6EEFCF83FF640E1B6EABDF182ACE
:1000B000EFD7172AE9D7196A1950040814E31A6A06
:1000C0001A5007080EE3036A1A500F0FE96E000E6C
:1000D0000320EA6EEFCF83FF320E1B6E93DF1A2AE6
:0C00E000EFD7192AE9D7836ACCD70300B8
:020000040030CA
:0E0000003FC9381E0087A1000FC00FE00F405F
:00000001FF
;PIC18F4550
;CRC=2F31  CREATED="03-Feb-22 22:20"
